{
  "_format": "hh-sol-artifact-1",
  "contractName": "B",
  "sourceName": "contracts/A.sol",
  "abi": [
    {
      "inputs": [
        {
          "internalType": "address",
          "name": "_A",
          "type": "address"
        }
      ],
      "stateMutability": "nonpayable",
      "type": "constructor"
    },
    {
      "inputs": [],
      "name": "getB",
      "outputs": [
        {
          "internalType": "uint256",
          "name": "",
          "type": "uint256"
        }
      ],
      "stateMutability": "view",
      "type": "function"
    },
    {
      "inputs": [
        {
          "internalType": "uint256",
          "name": "_b",
          "type": "uint256"
        }
      ],
      "name": "setB",
      "outputs": [],
      "stateMutability": "nonpayable",
      "type": "function"
    }
  ],
  "bytecode": "0x608060405234801561001057600080fd5b5060405161048f38038061048f8339818101604052810190610032919061008e565b80600160006101000a81548173ffffffffffffffffffffffffffffffffffffffff021916908373ffffffffffffffffffffffffffffffffffffffff16021790555050610100565b600081519050610088816100e9565b92915050565b6000602082840312156100a057600080fd5b60006100ae84828501610079565b91505092915050565b60006100c2826100c9565b9050919050565b600073ffffffffffffffffffffffffffffffffffffffff82169050919050565b6100f2816100b7565b81146100fd57600080fd5b50565b6103808061010f6000396000f3fe608060405234801561001057600080fd5b50600436106100365760003560e01c806309cdcf9b1461003b578063a1c5191514610057575b600080fd5b610055600480360381019061005091906101c0565b610075565b005b61005f6101a2565b60405161006c9190610240565b60405180910390f35b80600081905550600160009054906101000a900473ffffffffffffffffffffffffffffffffffffffff1673ffffffffffffffffffffffffffffffffffffffff166001826100c29190610271565b6040516024016100d29190610240565b6040516020818303038152906040527ff300a14c000000000000000000000000000000000000000000000000000000007bffffffffffffffffffffffffffffffffffffffffffffffffffffffff19166020820180517bffffffffffffffffffffffffffffffffffffffffffffffffffffffff838183161783525050505060405161015c9190610229565b600060405180830381855af49150503d8060008114610197576040519150601f19603f3d011682016040523d82523d6000602084013e61019c565b606091505b50505050565b60008054905090565b6000813590506101ba81610333565b92915050565b6000602082840312156101d257600080fd5b60006101e0848285016101ab565b91505092915050565b60006101f48261025b565b6101fe8185610266565b935061020e8185602086016102d1565b80840191505092915050565b610223816102c7565b82525050565b600061023582846101e9565b915081905092915050565b6000602082019050610255600083018461021a565b92915050565b600081519050919050565b600081905092915050565b600061027c826102c7565b9150610287836102c7565b9250827fffffffffffffffffffffffffffffffffffffffffffffffffffffffffffffffff038211156102bc576102bb610304565b5b828201905092915050565b6000819050919050565b60005b838110156102ef5780820151818401526020810190506102d4565b838111156102fe576000848401525b50505050565b7f4e487b7100000000000000000000000000000000000000000000000000000000600052601160045260246000fd5b61033c816102c7565b811461034757600080fd5b5056fea2646970667358221220a5ecc6e54b99809775207a43cd417e1ead2455f66f983321b60cd2b1f781093864736f6c63430008040033",
  "linkReferences": {},
  "deployedLinkReferences": {}
}