{
  "_format": "hh-sol-artifact-1",
  "contractName": "Hero",
  "sourceName": "contracts/Hero.sol",
  "abi": [
    {
      "inputs": [
        {
          "internalType": "enum Hero.Class",
          "name": "class",
          "type": "uint8"
        }
      ],
      "name": "createHero",
      "outputs": [],
      "stateMutability": "payable",
      "type": "function"
    },
    {
      "inputs": [],
      "name": "generateRandom",
      "outputs": [
        {
          "internalType": "uint256",
          "name": "",
          "type": "uint256"
        }
      ],
      "stateMutability": "view",
      "type": "function"
    },
    {
      "inputs": [
        {
          "internalType": "uint256",
          "name": "hero",
          "type": "uint256"
        }
      ],
      "name": "getDexterity",
      "outputs": [
        {
          "internalType": "uint256",
          "name": "",
          "type": "uint256"
        }
      ],
      "stateMutability": "pure",
      "type": "function"
    },
    {
      "inputs": [
        {
          "internalType": "uint256",
          "name": "hero",
          "type": "uint256"
        }
      ],
      "name": "getHealth",
      "outputs": [
        {
          "internalType": "uint256",
          "name": "",
          "type": "uint256"
        }
      ],
      "stateMutability": "pure",
      "type": "function"
    },
    {
      "inputs": [],
      "name": "getHeroes",
      "outputs": [
        {
          "internalType": "uint256[]",
          "name": "",
          "type": "uint256[]"
        }
      ],
      "stateMutability": "view",
      "type": "function"
    },
    {
      "inputs": [
        {
          "internalType": "uint256",
          "name": "hero",
          "type": "uint256"
        }
      ],
      "name": "getIntellect",
      "outputs": [
        {
          "internalType": "uint256",
          "name": "",
          "type": "uint256"
        }
      ],
      "stateMutability": "pure",
      "type": "function"
    },
    {
      "inputs": [
        {
          "internalType": "uint256",
          "name": "hero",
          "type": "uint256"
        }
      ],
      "name": "getMagic",
      "outputs": [
        {
          "internalType": "uint256",
          "name": "",
          "type": "uint256"
        }
      ],
      "stateMutability": "pure",
      "type": "function"
    },
    {
      "inputs": [
        {
          "internalType": "uint256",
          "name": "hero",
          "type": "uint256"
        }
      ],
      "name": "getStrength",
      "outputs": [
        {
          "internalType": "uint256",
          "name": "",
          "type": "uint256"
        }
      ],
      "stateMutability": "pure",
      "type": "function"
    }
  ],
  "bytecode": "0x608060405234801561001057600080fd5b50610b06806100206000396000f3fe60806040526004361061007b5760003560e01c80635e7e236d1161004e5780635e7e236d146101625780639a8d28821461017e578063e15f2255146101a9578063e53fbda6146101e65761007b565b806302e4af01146100805780633acfcaa7146100ab5780633fc70f2c146100e85780635bc0a62314610125575b600080fd5b34801561008c57600080fd5b50610095610223565b6040516100a291906108f8565b60405180910390f35b3480156100b757600080fd5b506100d260048036038101906100cd9190610793565b610256565b6040516100df91906108f8565b60405180910390f35b3480156100f457600080fd5b5061010f600480360381019061010a9190610793565b610267565b60405161011c91906108f8565b60405180910390f35b34801561013157600080fd5b5061014c60048036038101906101479190610793565b610278565b60405161015991906108f8565b60405180910390f35b61017c6004803603810190610177919061076a565b610289565b005b34801561018a57600080fd5b5061019361068a565b6040516101a091906108b6565b60405180910390f35b3480156101b557600080fd5b506101d060048036038101906101cb9190610793565b61071e565b6040516101dd91906108f8565b60405180910390f35b3480156101f257600080fd5b5061020d60048036038101906102089190610793565b61072f565b60405161021a91906108f8565b60405180910390f35b6000444260405160200161023892919061088a565b6040516020818303038152906040528051906020012060001c905090565b6000601f601183901c169050919050565b6000601f600783901c169050919050565b6000601f601683901c169050919050565b66b1a2bc2ec500003410156102d3576040517f08c379a00000000000000000000000000000000000000000000000000000000081526004016102ca906108d8565b60405180910390fd5b6000600567ffffffffffffffff811115610316577f4e487b7100000000000000000000000000000000000000000000000000000000600052604160045260246000fd5b6040519080825280602002602001820160405280156103445781602001602082028036833780820191505090505b509050600281600081518110610383577f4e487b7100000000000000000000000000000000000000000000000000000000600052603260045260246000fd5b6020026020010181815250506007816001815181106103cb577f4e487b7100000000000000000000000000000000000000000000000000000000600052603260045260246000fd5b602002602001018181525050600c81600281518110610413577f4e487b7100000000000000000000000000000000000000000000000000000000600052603260045260246000fd5b60200260200101818152505060118160038151811061045b577f4e487b7100000000000000000000000000000000000000000000000000000000600052603260045260246000fd5b6020026020010181815250506016816004815181106104a3577f4e487b7100000000000000000000000000000000000000000000000000000000600052603260045260246000fd5b60200260200101818152505060006005905060008360028111156104f0577f4e487b7100000000000000000000000000000000000000000000000000000000600052602160045260246000fd5b90505b6000826104fe610223565b61050891906109f1565b90506000600184600d61051b919061095d565b610523610223565b61052d91906109f1565b610537919061095d565b9050848281518110610572577f4e487b7100000000000000000000000000000000000000000000000000000000600052603260045260246000fd5b602002602001015181901b83179250838061058c906109bd565b9450508484815181106105c8577f4e487b7100000000000000000000000000000000000000000000000000000000600052603260045260246000fd5b6020026020010151858381518110610609577f4e487b7100000000000000000000000000000000000000000000000000000000600052603260045260246000fd5b6020026020010181815250505050600082116104f3576000803373ffffffffffffffffffffffffffffffffffffffff1673ffffffffffffffffffffffffffffffffffffffff16815260200190815260200160002081908060018154018082558091505060019003906000526020600020016000909190919091505550505050565b60606000803373ffffffffffffffffffffffffffffffffffffffff1673ffffffffffffffffffffffffffffffffffffffff16815260200190815260200160002080548060200260200160405190810160405280929190818152602001828054801561071457602002820191906000526020600020905b815481526020019060010190808311610700575b5050505050905090565b6000601f600c83901c169050919050565b6000601f600283901c169050919050565b60008135905061074f81610aa9565b92915050565b60008135905061076481610ab9565b92915050565b60006020828403121561077c57600080fd5b600061078a84828501610740565b91505092915050565b6000602082840312156107a557600080fd5b60006107b384828501610755565b91505092915050565b60006107c88383610855565b60208301905092915050565b60006107df82610923565b6107e9818561093b565b93506107f483610913565b8060005b8381101561082557815161080c88826107bc565b97506108178361092e565b9250506001810190506107f8565b5085935050505092915050565b600061083f60168361094c565b915061084a82610a80565b602082019050919050565b61085e816109b3565b82525050565b61086d816109b3565b82525050565b61088461087f826109b3565b6109e7565b82525050565b60006108968285610873565b6020820191506108a68284610873565b6020820191508190509392505050565b600060208201905081810360008301526108d081846107d4565b905092915050565b600060208201905081810360008301526108f181610832565b9050919050565b600060208201905061090d6000830184610864565b92915050565b6000819050602082019050919050565b600081519050919050565b6000602082019050919050565b600082825260208201905092915050565b600082825260208201905092915050565b6000610968826109b3565b9150610973836109b3565b9250827fffffffffffffffffffffffffffffffffffffffffffffffffffffffffffffffff038211156109a8576109a7610a22565b5b828201905092915050565b6000819050919050565b60006109c8826109b3565b915060008214156109dc576109db610a22565b5b600182039050919050565b6000819050919050565b60006109fc826109b3565b9150610a07836109b3565b925082610a1757610a16610a51565b5b828206905092915050565b7f4e487b7100000000000000000000000000000000000000000000000000000000600052601160045260246000fd5b7f4e487b7100000000000000000000000000000000000000000000000000000000600052601260045260246000fd5b7f706c656173652073656e64206d6f726520657468657200000000000000000000600082015250565b60038110610ab657600080fd5b50565b610ac2816109b3565b8114610acd57600080fd5b5056fea2646970667358221220676126dfafe519b723e0d7128c8614b8a84267c2971113d33426e30fad703db764736f6c63430008040033",
  "linkReferences": {},
  "deployedLinkReferences": {}
}