{
  "_format": "hh-sol-artifact-1",
  "contractName": "GasReporter",
  "sourceName": "contracts/GasReporter.sol",
  "abi": [
    {
      "inputs": [],
      "name": "report1",
      "outputs": [],
      "stateMutability": "nonpayable",
      "type": "function"
    },
    {
      "inputs": [],
      "name": "report2",
      "outputs": [],
      "stateMutability": "nonpayable",
      "type": "function"
    },
    {
      "inputs": [],
      "name": "report3",
      "outputs": [],
      "stateMutability": "nonpayable",
      "type": "function"
    },
    {
      "inputs": [],
      "name": "report4",
      "outputs": [],
      "stateMutability": "nonpayable",
      "type": "function"
    },
    {
      "inputs": [],
      "name": "report5",
      "outputs": [],
      "stateMutability": "nonpayable",
      "type": "function"
    }
  ],
  "bytecode": "0x608060405234801561001057600080fd5b50610267806100206000396000f3fe608060405234801561001057600080fd5b50600436106100575760003560e01c80635c32e1ed1461005c5780636336145c14610066578063e00c661f14610070578063e08657151461007a578063f70da8ab14610084575b600080fd5b61006461008e565b005b61006e6100d7565b005b6100786100ef565b005b61008261010f565b005b61008c610140565b005b6000808154809291906100a0906101b9565b9190505550600160008154809291906100b8906101b9565b9190505550600260008154809291906100d0906101b9565b9190505550565b6001546000546100e79190610159565b600281905550565b6100f76100d7565b6001546000546101079190610159565b600281905550565b600080815480929190610121906101b9565b919050555060016000815480929190610139906101b9565b9190505550565b600080815480929190610152906101b9565b9190505550565b6000610164826101af565b915061016f836101af565b9250827fffffffffffffffffffffffffffffffffffffffffffffffffffffffffffffffff038211156101a4576101a3610202565b5b828201905092915050565b6000819050919050565b60006101c4826101af565b91507fffffffffffffffffffffffffffffffffffffffffffffffffffffffffffffffff8214156101f7576101f6610202565b5b600182019050919050565b7f4e487b7100000000000000000000000000000000000000000000000000000000600052601160045260246000fdfea2646970667358221220bc16d25b919074350e1c704392b04eb4e05cfcccc24622699158c63020d86e2764736f6c63430008040033",
  "linkReferences": {},
  "deployedLinkReferences": {}
}