{
  "_format": "hh-sol-artifact-1",
  "contractName": "TestHero",
  "sourceName": "contracts/TestHero.sol",
  "abi": [
    {
      "inputs": [
        {
          "internalType": "enum Hero.Class",
          "name": "class",
          "type": "uint8"
        }
      ],
      "name": "createHero",
      "outputs": [],
      "stateMutability": "payable",
      "type": "function"
    },
    {
      "inputs": [],
      "name": "generateRandom",
      "outputs": [
        {
          "internalType": "uint256",
          "name": "",
          "type": "uint256"
        }
      ],
      "stateMutability": "view",
      "type": "function"
    },
    {
      "inputs": [
        {
          "internalType": "uint256",
          "name": "hero",
          "type": "uint256"
        }
      ],
      "name": "getDexterity",
      "outputs": [
        {
          "internalType": "uint256",
          "name": "",
          "type": "uint256"
        }
      ],
      "stateMutability": "pure",
      "type": "function"
    },
    {
      "inputs": [
        {
          "internalType": "uint256",
          "name": "hero",
          "type": "uint256"
        }
      ],
      "name": "getHealth",
      "outputs": [
        {
          "internalType": "uint256",
          "name": "",
          "type": "uint256"
        }
      ],
      "stateMutability": "pure",
      "type": "function"
    },
    {
      "inputs": [],
      "name": "getHeroes",
      "outputs": [
        {
          "internalType": "uint256[]",
          "name": "",
          "type": "uint256[]"
        }
      ],
      "stateMutability": "view",
      "type": "function"
    },
    {
      "inputs": [
        {
          "internalType": "uint256",
          "name": "hero",
          "type": "uint256"
        }
      ],
      "name": "getIntellect",
      "outputs": [
        {
          "internalType": "uint256",
          "name": "",
          "type": "uint256"
        }
      ],
      "stateMutability": "pure",
      "type": "function"
    },
    {
      "inputs": [
        {
          "internalType": "uint256",
          "name": "hero",
          "type": "uint256"
        }
      ],
      "name": "getMagic",
      "outputs": [
        {
          "internalType": "uint256",
          "name": "",
          "type": "uint256"
        }
      ],
      "stateMutability": "pure",
      "type": "function"
    },
    {
      "inputs": [
        {
          "internalType": "uint256",
          "name": "hero",
          "type": "uint256"
        }
      ],
      "name": "getStrength",
      "outputs": [
        {
          "internalType": "uint256",
          "name": "",
          "type": "uint256"
        }
      ],
      "stateMutability": "pure",
      "type": "function"
    },
    {
      "inputs": [
        {
          "internalType": "uint256",
          "name": "r",
          "type": "uint256"
        }
      ],
      "name": "setRandom",
      "outputs": [],
      "stateMutability": "nonpayable",
      "type": "function"
    }
  ],
  "bytecode": "0x608060405234801561001057600080fd5b50610ace806100206000396000f3fe6080604052600436106100865760003560e01c80635e7e236d116100595780635e7e236d1461016d578063729e7cf6146101895780639a8d2882146101b2578063e15f2255146101dd578063e53fbda61461021a57610086565b806302e4af011461008b5780633acfcaa7146100b65780633fc70f2c146100f35780635bc0a62314610130575b600080fd5b34801561009757600080fd5b506100a0610257565b6040516100ad91906108ca565b60405180910390f35b3480156100c257600080fd5b506100dd60048036038101906100d891906107a8565b610261565b6040516100ea91906108ca565b60405180910390f35b3480156100ff57600080fd5b5061011a600480360381019061011591906107a8565b610272565b60405161012791906108ca565b60405180910390f35b34801561013c57600080fd5b50610157600480360381019061015291906107a8565b610283565b60405161016491906108ca565b60405180910390f35b6101876004803603810190610182919061077f565b610294565b005b34801561019557600080fd5b506101b060048036038101906101ab91906107a8565b610695565b005b3480156101be57600080fd5b506101c761069f565b6040516101d49190610888565b60405180910390f35b3480156101e957600080fd5b5061020460048036038101906101ff91906107a8565b610733565b60405161021191906108ca565b60405180910390f35b34801561022657600080fd5b50610241600480360381019061023c91906107a8565b610744565b60405161024e91906108ca565b60405180910390f35b6000600154905090565b6000601f601183901c169050919050565b6000601f600783901c169050919050565b6000601f601683901c169050919050565b66b1a2bc2ec500003410156102de576040517f08c379a00000000000000000000000000000000000000000000000000000000081526004016102d5906108aa565b60405180910390fd5b6000600567ffffffffffffffff811115610321577f4e487b7100000000000000000000000000000000000000000000000000000000600052604160045260246000fd5b60405190808252806020026020018201604052801561034f5781602001602082028036833780820191505090505b50905060028160008151811061038e577f4e487b7100000000000000000000000000000000000000000000000000000000600052603260045260246000fd5b6020026020010181815250506007816001815181106103d6577f4e487b7100000000000000000000000000000000000000000000000000000000600052603260045260246000fd5b602002602001018181525050600c8160028151811061041e577f4e487b7100000000000000000000000000000000000000000000000000000000600052603260045260246000fd5b602002602001018181525050601181600381518110610466577f4e487b7100000000000000000000000000000000000000000000000000000000600052603260045260246000fd5b6020026020010181815250506016816004815181106104ae577f4e487b7100000000000000000000000000000000000000000000000000000000600052603260045260246000fd5b60200260200101818152505060006005905060008360028111156104fb577f4e487b7100000000000000000000000000000000000000000000000000000000600052602160045260246000fd5b90505b600082610509610257565b61051391906109b9565b90506000600184600d610526919061092f565b61052e610257565b61053891906109b9565b610542919061092f565b905084828151811061057d577f4e487b7100000000000000000000000000000000000000000000000000000000600052603260045260246000fd5b602002602001015181901b8317925083806105979061098f565b9450508484815181106105d3577f4e487b7100000000000000000000000000000000000000000000000000000000600052603260045260246000fd5b6020026020010151858381518110610614577f4e487b7100000000000000000000000000000000000000000000000000000000600052603260045260246000fd5b6020026020010181815250505050600082116104fe576000803373ffffffffffffffffffffffffffffffffffffffff1673ffffffffffffffffffffffffffffffffffffffff16815260200190815260200160002081908060018154018082558091505060019003906000526020600020016000909190919091505550505050565b8060018190555050565b60606000803373ffffffffffffffffffffffffffffffffffffffff1673ffffffffffffffffffffffffffffffffffffffff16815260200190815260200160002080548060200260200160405190810160405280929190818152602001828054801561072957602002820191906000526020600020905b815481526020019060010190808311610715575b5050505050905090565b6000601f600c83901c169050919050565b6000601f600283901c169050919050565b60008135905061076481610a71565b92915050565b60008135905061077981610a81565b92915050565b60006020828403121561079157600080fd5b600061079f84828501610755565b91505092915050565b6000602082840312156107ba57600080fd5b60006107c88482850161076a565b91505092915050565b60006107dd838361086a565b60208301905092915050565b60006107f4826108f5565b6107fe818561090d565b9350610809836108e5565b8060005b8381101561083a57815161082188826107d1565b975061082c83610900565b92505060018101905061080d565b5085935050505092915050565b600061085460168361091e565b915061085f82610a48565b602082019050919050565b61087381610985565b82525050565b61088281610985565b82525050565b600060208201905081810360008301526108a281846107e9565b905092915050565b600060208201905081810360008301526108c381610847565b9050919050565b60006020820190506108df6000830184610879565b92915050565b6000819050602082019050919050565b600081519050919050565b6000602082019050919050565b600082825260208201905092915050565b600082825260208201905092915050565b600061093a82610985565b915061094583610985565b9250827fffffffffffffffffffffffffffffffffffffffffffffffffffffffffffffffff0382111561097a576109796109ea565b5b828201905092915050565b6000819050919050565b600061099a82610985565b915060008214156109ae576109ad6109ea565b5b600182039050919050565b60006109c482610985565b91506109cf83610985565b9250826109df576109de610a19565b5b828206905092915050565b7f4e487b7100000000000000000000000000000000000000000000000000000000600052601160045260246000fd5b7f4e487b7100000000000000000000000000000000000000000000000000000000600052601260045260246000fd5b7f706c656173652073656e64206d6f726520657468657200000000000000000000600082015250565b60038110610a7e57600080fd5b50565b610a8a81610985565b8114610a9557600080fd5b5056fea2646970667358221220a74fef40ed44c1e424c8c9144a3816252a308a21ff9d5089a7e1ca48098c27f564736f6c63430008040033",
  "linkReferences": {},
  "deployedLinkReferences": {}
}